:020000040000FA
:10000000000002280130FE000230FF0080300000B6
:100010000000A0210000000083160000A1007F085E
:10002000A0000330A2000230A300831600002008C5
:10003000A4002108A500FF30A007031CA103250888
:10004000240403199A2804302207A400A501A50D51
:100050002308A5072408FE002508FF0080300000C3
:100060000000A0210000000083160000A7007F0808
:10007000A6002208FE002308FF00803000000000D8
:10008000A0210000000083160000A900A5007F0841
:10009000A400A80002302207A400A501A50D230892
:1000A000A5072408FE002508FF008030000000009E
:1000B000A0210000000083160000A500AB007F080F
:1000C000AA00A400831600002608AA002708AB0097
:1000D000FF30A607031CA7032B082A040319932843
:1000E0002808FE002908FF008030000000008D2154
:1000F0000000000083160000AA00240883120313E6
:100100008400831383160000251883172A0883129E
:100110000313800083160000A80A0319A90AA40A81
:100120000319A50A6228063083160000A2070318E7
:10013000A30A1528000000004C29080083160000BF
:10014000B6007F08B5007E08B8007D08B70003142C
:10015000B61F0310B901B90D39080319B7283509BD
:10016000BA003609BB00BA0A0319BB0ABD288316B8
:1001700000003508BA003608BB00831600003A08B4
:10018000B5003B08B6000314B81F0310031CD028A9
:100190003709BA003809BB00BA0A0319BB0AD628C6
:1001A000831600003708BA003808BB008316000029
:1001B0003A08B700FD003B08B800FE003508FF0014
:1001C000360800000000FF20000000008316000039
:1001D000B6007F08B50039080319F9283509B900B8
:1001E0003609B700B90A0319B70A3908FF003708FA
:1001F000FE28831600003508FF0036080800831229
:100200000000A1007F08A0007E08A3007D08A200D6
:10021000A401A5018312000023088039031D0130C9
:10022000A6002608031D2B290310A20DA30D2308E9
:100230002102031D1D29220820020318252903106D
:1002400083120000A30CA20C2B2983120000A50A24
:100250002508A4000A298312000023082102031D97
:10026000332922082002031C3D29831200002208A2
:10027000A0022308031C230FA10203108312000015
:10028000A30CA20C2408A500A4032508031D2B29F8
:100290002008FF0021080800203083168500831203
:1002A000851E4F29E7218316B200B300B401063042
:1002B000FD000030FE003308FF0000309E20831652
:1002C000B3007F08B200B400340AB200B300B40136
:1002D000331C72293208063A031D70298312051552
:1002E00083120514023083163202031C792983120B
:1002F0008514043083163202031C802983120516EC
:100300006430FF000030C1218312851A8429051052
:100310008510051185114F290800003A0319942909
:10032000803A03199B2900347E08840083137F18C8
:100330008317000808007F088A007E0882000800F2
:10034000003A0319A829803A0319B229FF010034A1
:100350007E08840083137F1883170008FF00840A37
:1003600000080800000000009B21FD00FE0FFF03B5
:10037000FF0A000000009B21FC007D08FF007C08B4
:1003800008008316AD007F08AC00AE01AF018316F4
:100390002D082F02031DCE292C082E020318E62952
:1003A0008316B001B101033083163102031DDA292F
:1003B000E83030020318E1298316B00A0319B10AA4
:1003C000D3298316AE0A0319AF0AC729080083167A
:1003D0003C088316AD002D1CFB29031083163C0C32
:1003E0008316AD00AC0091302C068316BC0083163A
:1003F000AD000030FE2903108316BC0C83163C08A8
:100400000800023400340F340234BC3400340134A8
:10041000003410340234BD34003401340034553417
:020420000034A6
:00000001FF
