:020000040000FA
:10000000000002283E30FE000230FF008030000079
:100010000000AF210000000083160000AD007F0843
:10002000AC004030AE000230AF00831600002C0858
:10003000B0002D08B100FF30AC07031CAD03310840
:10004000300403199A2804302E07B000B101B10D15
:100050002F08B1073008FE003108FF008030000093
:100060000000AF210000000083160000B3007F08ED
:10007000B2002E08FE002F08FF00803000000000B4
:10008000AF210000000083160000B500B1007F081A
:10009000B000B40002302E07B000B101B10D2F083E
:1000A000B1073008FE003108FF008030000000007A
:1000B000AF210000000083160000B100B7007F08E8
:1000C000B600B000831600003208B6003308B7004F
:1000D000FF30B207031CB303370836040319932813
:1000E0003408FE003508FF008030000000009C212D
:1000F0000000000083160000B600300883120313CE
:100100008400831383160000311883173608831286
:100110000313800083160000B40A0319B50AB00A5D
:100120000319B10A6228063083160000AE070318CF
:10013000AF0A152800000000FF2808008316000001
:10014000B9007F08B8007E08BB007D08BA00031420
:10015000B91F0310BC01BC0D3C080319B7283809AE
:10016000BD003909BE00BD0A0319BE0ABD288316A9
:1001700000003808BD003908BE00831600003D08A5
:10018000B8003E08B9000314BB1F0310031CD0289D
:100190003A09BD003B09BE00BD0A0319BE0AD628B4
:1001A000831600003A08BD003B08BE00831600001D
:1001B0003D08BA00FD003E08BB00FE003808FF0005
:1001C0003908000000004F210000000083160000E5
:1001D000B9007F08B8003C080319F9283809BC00A9
:1001E0003909BA00BC0A0319BA0A3C08FF003A08E8
:1001F000FE28831600003808FF0039080800203068
:1002000083168500831285018312851E0429D0215F
:100210008316A900AA00AB010630FD000030FE00E5
:100220002A08FF0000309E208316AA007F08A9003C
:10023000A90A0319AA0AAB01291C20290130AB0025
:10024000003083162A02031D272902302902031CCD
:100250002B298316AB14003083162A02031D322982
:1002600004302902031C362983162B16831629080D
:10027000063A031D41292A08003A031D4129053089
:10028000AB0483162B0883128500C830FF000030B2
:1002900000228312851A4929850104290800831246
:1002A0000000A1007F08A0007E08A3007D08A20036
:1002B000A401A5018312000023088039031D013029
:1002C000A6002608031D7B290310A20DA30D2308F9
:1002D0002102031D6D29220820020318752903102D
:1002E00083120000A30CA20C7B2983120000A50A34
:1002F0002508A4005A298312000023082102031DA7
:10030000832922082002031C8D2983120000220861
:10031000A0022308031C230FA10203108312000074
:10032000A30CA20C2408A500A4032508031D7B2907
:100330002008FF0021080800003A0319A329803A89
:100340000319AA2900347E08840083137F188317B9
:10035000000808007F088A007E0882000800003A32
:100360000319B729803A0319C129FF0100347E0817
:10037000840083137F1883170008FF00840A000895
:10038000080000000000AA21FD00FE0FFF03FF0A85
:1003900000000000AA21FC007D08FF007C08080086
:1003A0008316A201A301A401A50100308316250232
:1003B000031DDC29203024020318FC292622831681
:1003C000A7007F08A600A800A600A7010030280803
:1003D000A6002408003C0319F3298316A60DA70DD7
:1003E000013E031CED2983162608A2042708A30456
:1003F000A40A0319A50AD52983162208A400080017
:100400008316A1007F08A000A201A3018316210882
:100410002302031D0D2A200822020318252A831611
:10042000A401A501033083162502031D192AE83013
:1004300024020318202A8316A40A0319A50A122AE3
:100440008316A20A0319A30A062A080001308312A0
:1004500027058316A100A00103108312A80CA70C86
:10046000831621080319392AEE308312A706AC300F
:10047000A80683162108FF00200808000234003473
:100480004C34023427340034023400344E34023405
:0E0490002934003401340034893467340034D8
:02400E000000B0
:00000001FF
